{
	"main.sol": {
		"StringEncode": {
			"abi": [
				{
					"inputs": [
						{
							"internalType": "string",
							"name": "self",
							"type": "string"
						}
					],
					"name": "encode",
					"outputs": [
						{
							"internalType": "bytes32",
							"name": "",
							"type": "bytes32"
						}
					],
					"stateMutability": "pure",
					"type": "function"
				}
			],
			"devdoc": {
				"kind": "dev",
				"methods": {},
				"version": 1
			},
			"evm": {
				"assembly": "    /* \"main.sol\":138:326  library StringEncode... */\n  dataSize(sub_0)\n  dataOffset(sub_0)\n  0x0b\n  dup3\n  dup3\n  dup3\n  codecopy\n  dup1\n  mload\n  0x00\n  byte\n  0x73\n  eq\n  tag_1\n  jumpi\n  mstore(0x00, 0x4e487b7100000000000000000000000000000000000000000000000000000000)\n  mstore(0x04, 0x00)\n  revert(0x00, 0x24)\ntag_1:\n  mstore(0x00, address)\n  0x73\n  dup2\n  mstore8\n  dup3\n  dup2\n  return\nstop\n\nsub_0: assembly {\n        /* \"main.sol\":138:326  library StringEncode... */\n      eq(address, deployTimeAddress())\n      mstore(0x40, 0x80)\n      jumpi(tag_1, lt(calldatasize, 0x04))\n      shr(0xe0, calldataload(0x00))\n      dup1\n      0x6a11b2a8\n      eq\n      tag_2\n      jumpi\n    tag_1:\n      0x00\n      dup1\n      revert\n        /* \"main.sol\":165:324  function encode(string memory self) public pure returns(bytes32)... */\n    tag_2:\n      tag_3\n      0x04\n      dup1\n      calldatasize\n      sub\n      dup2\n      add\n      swap1\n      tag_4\n      swap2\n      swap1\n      tag_5\n      jump\t// in\n    tag_4:\n      tag_6\n      jump\t// in\n    tag_3:\n      mload(0x40)\n      tag_7\n      swap2\n      swap1\n      tag_8\n      jump\t// in\n    tag_7:\n      mload(0x40)\n      dup1\n      swap2\n      sub\n      swap1\n      return\n    tag_6:\n        /* \"main.sol\":221:228  bytes32 */\n      0x00\n        /* \"main.sol\":244:258  bytes32 result */\n      dup1\n        /* \"main.sol\":288:292  self */\n      dup3\n        /* \"main.sol\":271:293  abi.encodePacked(self) */\n      add(0x20, mload(0x40))\n      tag_10\n      swap2\n      swap1\n      tag_11\n      jump\t// in\n    tag_10:\n      mload(0x40)\n      0x20\n      dup2\n      dup4\n      sub\n      sub\n      dup2\n      mstore\n      swap1\n      0x40\n      mstore\n        /* \"main.sol\":261:294  keccak256(abi.encodePacked(self)) */\n      dup1\n      mload\n      swap1\n      0x20\n      add\n      keccak256\n        /* \"main.sol\":244:294  bytes32 result = keccak256(abi.encodePacked(self)) */\n      swap1\n      pop\n        /* \"main.sol\":311:317  result */\n      dup1\n        /* \"main.sol\":304:317  return result */\n      swap2\n      pop\n      pop\n        /* \"main.sol\":165:324  function encode(string memory self) public pure returns(bytes32)... */\n      swap2\n      swap1\n      pop\n      jump\t// out\n        /* \"#utility.yul\":7:82   */\n    tag_12:\n        /* \"#utility.yul\":40:46   */\n      0x00\n        /* \"#utility.yul\":73:75   */\n      0x40\n        /* \"#utility.yul\":67:76   */\n      mload\n        /* \"#utility.yul\":57:76   */\n      swap1\n      pop\n        /* \"#utility.yul\":7:82   */\n      swap1\n      jump\t// out\n        /* \"#utility.yul\":88:205   */\n    tag_13:\n        /* \"#utility.yul\":197:198   */\n      0x00\n        /* \"#utility.yul\":194:195   */\n      dup1\n        /* \"#utility.yul\":187:199   */\n      revert\n        /* \"#utility.yul\":211:328   */\n    tag_14:\n        /* \"#utility.yul\":320:321   */\n      0x00\n        /* \"#utility.yul\":317:318   */\n      dup1\n        /* \"#utility.yul\":310:322   */\n      revert\n        /* \"#utility.yul\":334:451   */\n    tag_15:\n        /* \"#utility.yul\":443:444   */\n      0x00\n        /* \"#utility.yul\":440:441   */\n      dup1\n        /* \"#utility.yul\":433:445   */\n      revert\n        /* \"#utility.yul\":457:574   */\n    tag_16:\n        /* \"#utility.yul\":566:567   */\n      0x00\n        /* \"#utility.yul\":563:564   */\n      dup1\n        /* \"#utility.yul\":556:568   */\n      revert\n        /* \"#utility.yul\":580:682   */\n    tag_17:\n        /* \"#utility.yul\":621:627   */\n      0x00\n        /* \"#utility.yul\":672:674   */\n      0x1f\n        /* \"#utility.yul\":668:675   */\n      not\n        /* \"#utility.yul\":663:665   */\n      0x1f\n        /* \"#utility.yul\":656:661   */\n      dup4\n        /* \"#utility.yul\":652:666   */\n      add\n        /* \"#utility.yul\":648:676   */\n      and\n        /* \"#utility.yul\":638:676   */\n      swap1\n      pop\n        /* \"#utility.yul\":580:682   */\n      swap2\n      swap1\n      pop\n      jump\t// out\n        /* \"#utility.yul\":688:868   */\n    tag_18:\n        /* \"#utility.yul\":736:813   */\n      0x4e487b7100000000000000000000000000000000000000000000000000000000\n        /* \"#utility.yul\":733:734   */\n      0x00\n        /* \"#utility.yul\":726:814   */\n      mstore\n        /* \"#utility.yul\":833:837   */\n      0x41\n        /* \"#utility.yul\":830:831   */\n      0x04\n        /* \"#utility.yul\":823:838   */\n      mstore\n        /* \"#utility.yul\":857:861   */\n      0x24\n        /* \"#utility.yul\":854:855   */\n      0x00\n        /* \"#utility.yul\":847:862   */\n      revert\n        /* \"#utility.yul\":874:1155   */\n    tag_19:\n        /* \"#utility.yul\":957:984   */\n      tag_40\n        /* \"#utility.yul\":979:983   */\n      dup3\n        /* \"#utility.yul\":957:984   */\n      tag_17\n      jump\t// in\n    tag_40:\n        /* \"#utility.yul\":949:955   */\n      dup2\n        /* \"#utility.yul\":945:985   */\n      add\n        /* \"#utility.yul\":1087:1093   */\n      dup2\n        /* \"#utility.yul\":1075:1085   */\n      dup2\n        /* \"#utility.yul\":1072:1094   */\n      lt\n        /* \"#utility.yul\":1051:1069   */\n      0xffffffffffffffff\n        /* \"#utility.yul\":1039:1049   */\n      dup3\n        /* \"#utility.yul\":1036:1070   */\n      gt\n        /* \"#utility.yul\":1033:1095   */\n      or\n        /* \"#utility.yul\":1030:1118   */\n      iszero\n      tag_41\n      jumpi\n        /* \"#utility.yul\":1098:1116   */\n      tag_42\n      tag_18\n      jump\t// in\n    tag_42:\n        /* \"#utility.yul\":1030:1118   */\n    tag_41:\n        /* \"#utility.yul\":1138:1148   */\n      dup1\n        /* \"#utility.yul\":1134:1136   */\n      0x40\n        /* \"#utility.yul\":1127:1149   */\n      mstore\n        /* \"#utility.yul\":917:1155   */\n      pop\n        /* \"#utility.yul\":874:1155   */\n      pop\n      pop\n      jump\t// out\n        /* \"#utility.yul\":1161:1290   */\n    tag_20:\n        /* \"#utility.yul\":1195:1201   */\n      0x00\n        /* \"#utility.yul\":1222:1242   */\n      tag_44\n      tag_12\n      jump\t// in\n    tag_44:\n        /* \"#utility.yul\":1212:1242   */\n      swap1\n      pop\n        /* \"#utility.yul\":1251:1284   */\n      tag_45\n        /* \"#utility.yul\":1279:1283   */\n      dup3\n        /* \"#utility.yul\":1271:1277   */\n      dup3\n        /* \"#utility.yul\":1251:1284   */\n      tag_19\n      jump\t// in\n    tag_45:\n        /* \"#utility.yul\":1161:1290   */\n      swap2\n      swap1\n      pop\n      jump\t// out\n        /* \"#utility.yul\":1296:1604   */\n    tag_21:\n        /* \"#utility.yul\":1358:1362   */\n      0x00\n        /* \"#utility.yul\":1448:1466   */\n      0xffffffffffffffff\n        /* \"#utility.yul\":1440:1446   */\n      dup3\n        /* \"#utility.yul\":1437:1467   */\n      gt\n        /* \"#utility.yul\":1434:1490   */\n      iszero\n      tag_47\n      jumpi\n        /* \"#utility.yul\":1470:1488   */\n      tag_48\n      tag_18\n      jump\t// in\n    tag_48:\n        /* \"#utility.yul\":1434:1490   */\n    tag_47:\n        /* \"#utility.yul\":1508:1537   */\n      tag_49\n        /* \"#utility.yul\":1530:1536   */\n      dup3\n        /* \"#utility.yul\":1508:1537   */\n      tag_17\n      jump\t// in\n    tag_49:\n        /* \"#utility.yul\":1500:1537   */\n      swap1\n      pop\n        /* \"#utility.yul\":1592:1596   */\n      0x20\n        /* \"#utility.yul\":1586:1590   */\n      dup2\n        /* \"#utility.yul\":1582:1597   */\n      add\n        /* \"#utility.yul\":1574:1597   */\n      swap1\n      pop\n        /* \"#utility.yul\":1296:1604   */\n      swap2\n      swap1\n      pop\n      jump\t// out\n        /* \"#utility.yul\":1610:1756   */\n    tag_22:\n        /* \"#utility.yul\":1707:1713   */\n      dup3\n        /* \"#utility.yul\":1702:1705   */\n      dup2\n        /* \"#utility.yul\":1697:1700   */\n      dup4\n        /* \"#utility.yul\":1684:1714   */\n      calldatacopy\n        /* \"#utility.yul\":1748:1749   */\n      0x00\n        /* \"#utility.yul\":1739:1745   */\n      dup4\n        /* \"#utility.yul\":1734:1737   */\n      dup4\n        /* \"#utility.yul\":1730:1746   */\n      add\n        /* \"#utility.yul\":1723:1750   */\n      mstore\n        /* \"#utility.yul\":1610:1756   */\n      pop\n      pop\n      pop\n      jump\t// out\n        /* \"#utility.yul\":1762:2187   */\n    tag_23:\n        /* \"#utility.yul\":1840:1845   */\n      0x00\n        /* \"#utility.yul\":1865:1931   */\n      tag_52\n        /* \"#utility.yul\":1881:1930   */\n      tag_53\n        /* \"#utility.yul\":1923:1929   */\n      dup5\n        /* \"#utility.yul\":1881:1930   */\n      tag_21\n      jump\t// in\n    tag_53:\n        /* \"#utility.yul\":1865:1931   */\n      tag_20\n      jump\t// in\n    tag_52:\n        /* \"#utility.yul\":1856:1931   */\n      swap1\n      pop\n        /* \"#utility.yul\":1954:1960   */\n      dup3\n        /* \"#utility.yul\":1947:1952   */\n      dup2\n        /* \"#utility.yul\":1940:1961   */\n      mstore\n        /* \"#utility.yul\":1992:1996   */\n      0x20\n        /* \"#utility.yul\":1985:1990   */\n      dup2\n        /* \"#utility.yul\":1981:1997   */\n      add\n        /* \"#utility.yul\":2030:2033   */\n      dup5\n        /* \"#utility.yul\":2021:2027   */\n      dup5\n        /* \"#utility.yul\":2016:2019   */\n      dup5\n        /* \"#utility.yul\":2012:2028   */\n      add\n        /* \"#utility.yul\":2009:2034   */\n      gt\n        /* \"#utility.yul\":2006:2118   */\n      iszero\n      tag_54\n      jumpi\n        /* \"#utility.yul\":2037:2116   */\n      tag_55\n      tag_16\n      jump\t// in\n    tag_55:\n        /* \"#utility.yul\":2006:2118   */\n    tag_54:\n        /* \"#utility.yul\":2127:2181   */\n      tag_56\n        /* \"#utility.yul\":2174:2180   */\n      dup5\n        /* \"#utility.yul\":2169:2172   */\n      dup3\n        /* \"#utility.yul\":2164:2167   */\n      dup6\n        /* \"#utility.yul\":2127:2181   */\n      tag_22\n      jump\t// in\n    tag_56:\n        /* \"#utility.yul\":1846:2187   */\n      pop\n        /* \"#utility.yul\":1762:2187   */\n      swap4\n      swap3\n      pop\n      pop\n      pop\n      jump\t// out\n        /* \"#utility.yul\":2207:2547   */\n    tag_24:\n        /* \"#utility.yul\":2263:2268   */\n      0x00\n        /* \"#utility.yul\":2312:2315   */\n      dup3\n        /* \"#utility.yul\":2305:2309   */\n      0x1f\n        /* \"#utility.yul\":2297:2303   */\n      dup4\n        /* \"#utility.yul\":2293:2310   */\n      add\n        /* \"#utility.yul\":2289:2316   */\n      slt\n        /* \"#utility.yul\":2279:2401   */\n      tag_58\n      jumpi\n        /* \"#utility.yul\":2320:2399   */\n      tag_59\n      tag_15\n      jump\t// in\n    tag_59:\n        /* \"#utility.yul\":2279:2401   */\n    tag_58:\n        /* \"#utility.yul\":2437:2443   */\n      dup2\n        /* \"#utility.yul\":2424:2444   */\n      calldataload\n        /* \"#utility.yul\":2462:2541   */\n      tag_60\n        /* \"#utility.yul\":2537:2540   */\n      dup5\n        /* \"#utility.yul\":2529:2535   */\n      dup3\n        /* \"#utility.yul\":2522:2526   */\n      0x20\n        /* \"#utility.yul\":2514:2520   */\n      dup7\n        /* \"#utility.yul\":2510:2527   */\n      add\n        /* \"#utility.yul\":2462:2541   */\n      tag_23\n      jump\t// in\n    tag_60:\n        /* \"#utility.yul\":2453:2541   */\n      swap2\n      pop\n        /* \"#utility.yul\":2269:2547   */\n      pop\n        /* \"#utility.yul\":2207:2547   */\n      swap3\n      swap2\n      pop\n      pop\n      jump\t// out\n        /* \"#utility.yul\":2553:3062   */\n    tag_5:\n        /* \"#utility.yul\":2622:2628   */\n      0x00\n        /* \"#utility.yul\":2671:2673   */\n      0x20\n        /* \"#utility.yul\":2659:2668   */\n      dup3\n        /* \"#utility.yul\":2650:2657   */\n      dup5\n        /* \"#utility.yul\":2646:2669   */\n      sub\n        /* \"#utility.yul\":2642:2674   */\n      slt\n        /* \"#utility.yul\":2639:2758   */\n      iszero\n      tag_62\n      jumpi\n        /* \"#utility.yul\":2677:2756   */\n      tag_63\n      tag_13\n      jump\t// in\n    tag_63:\n        /* \"#utility.yul\":2639:2758   */\n    tag_62:\n        /* \"#utility.yul\":2825:2826   */\n      0x00\n        /* \"#utility.yul\":2814:2823   */\n      dup3\n        /* \"#utility.yul\":2810:2827   */\n      add\n        /* \"#utility.yul\":2797:2828   */\n      calldataload\n        /* \"#utility.yul\":2855:2873   */\n      0xffffffffffffffff\n        /* \"#utility.yul\":2847:2853   */\n      dup2\n        /* \"#utility.yul\":2844:2874   */\n      gt\n        /* \"#utility.yul\":2841:2958   */\n      iszero\n      tag_64\n      jumpi\n        /* \"#utility.yul\":2877:2956   */\n      tag_65\n      tag_14\n      jump\t// in\n    tag_65:\n        /* \"#utility.yul\":2841:2958   */\n    tag_64:\n        /* \"#utility.yul\":2982:3045   */\n      tag_66\n        /* \"#utility.yul\":3037:3044   */\n      dup5\n        /* \"#utility.yul\":3028:3034   */\n      dup3\n        /* \"#utility.yul\":3017:3026   */\n      dup6\n        /* \"#utility.yul\":3013:3035   */\n      add\n        /* \"#utility.yul\":2982:3045   */\n      tag_24\n      jump\t// in\n    tag_66:\n        /* \"#utility.yul\":2972:3045   */\n      swap2\n      pop\n        /* \"#utility.yul\":2768:3055   */\n      pop\n        /* \"#utility.yul\":2553:3062   */\n      swap3\n      swap2\n      pop\n      pop\n      jump\t// out\n        /* \"#utility.yul\":3068:3145   */\n    tag_25:\n        /* \"#utility.yul\":3105:3112   */\n      0x00\n        /* \"#utility.yul\":3134:3139   */\n      dup2\n        /* \"#utility.yul\":3123:3139   */\n      swap1\n      pop\n        /* \"#utility.yul\":3068:3145   */\n      swap2\n      swap1\n      pop\n      jump\t// out\n        /* \"#utility.yul\":3151:3277   */\n    tag_26:\n        /* \"#utility.yul\":3246:3270   */\n      tag_69\n        /* \"#utility.yul\":3264:3269   */\n      dup2\n        /* \"#utility.yul\":3246:3270   */\n      tag_25\n      jump\t// in\n    tag_69:\n        /* \"#utility.yul\":3241:3244   */\n      dup3\n        /* \"#utility.yul\":3234:3271   */\n      mstore\n        /* \"#utility.yul\":3151:3277   */\n      pop\n      pop\n      jump\t// out\n        /* \"#utility.yul\":3283:3521   */\n    tag_8:\n        /* \"#utility.yul\":3384:3388   */\n      0x00\n        /* \"#utility.yul\":3422:3424   */\n      0x20\n        /* \"#utility.yul\":3411:3420   */\n      dup3\n        /* \"#utility.yul\":3407:3425   */\n      add\n        /* \"#utility.yul\":3399:3425   */\n      swap1\n      pop\n        /* \"#utility.yul\":3435:3514   */\n      tag_71\n        /* \"#utility.yul\":3511:3512   */\n      0x00\n        /* \"#utility.yul\":3500:3509   */\n      dup4\n        /* \"#utility.yul\":3496:3513   */\n      add\n        /* \"#utility.yul\":3487:3493   */\n      dup5\n        /* \"#utility.yul\":3435:3514   */\n      tag_26\n      jump\t// in\n    tag_71:\n        /* \"#utility.yul\":3283:3521   */\n      swap3\n      swap2\n      pop\n      pop\n      jump\t// out\n        /* \"#utility.yul\":3527:3626   */\n    tag_27:\n        /* \"#utility.yul\":3579:3585   */\n      0x00\n        /* \"#utility.yul\":3613:3618   */\n      dup2\n        /* \"#utility.yul\":3607:3619   */\n      mload\n        /* \"#utility.yul\":3597:3619   */\n      swap1\n      pop\n        /* \"#utility.yul\":3527:3626   */\n      swap2\n      swap1\n      pop\n      jump\t// out\n        /* \"#utility.yul\":3632:3780   */\n    tag_28:\n        /* \"#utility.yul\":3734:3745   */\n      0x00\n        /* \"#utility.yul\":3771:3774   */\n      dup2\n        /* \"#utility.yul\":3756:3774   */\n      swap1\n      pop\n        /* \"#utility.yul\":3632:3780   */\n      swap3\n      swap2\n      pop\n      pop\n      jump\t// out\n        /* \"#utility.yul\":3786:4032   */\n    tag_29:\n        /* \"#utility.yul\":3867:3868   */\n      0x00\n        /* \"#utility.yul\":3877:3990   */\n    tag_75:\n        /* \"#utility.yul\":3891:3897   */\n      dup4\n        /* \"#utility.yul\":3888:3889   */\n      dup2\n        /* \"#utility.yul\":3885:3898   */\n      lt\n        /* \"#utility.yul\":3877:3990   */\n      iszero\n      tag_77\n      jumpi\n        /* \"#utility.yul\":3976:3977   */\n      dup1\n        /* \"#utility.yul\":3971:3974   */\n      dup3\n        /* \"#utility.yul\":3967:3978   */\n      add\n        /* \"#utility.yul\":3961:3979   */\n      mload\n        /* \"#utility.yul\":3957:3958   */\n      dup2\n        /* \"#utility.yul\":3952:3955   */\n      dup5\n        /* \"#utility.yul\":3948:3959   */\n      add\n        /* \"#utility.yul\":3941:3980   */\n      mstore\n        /* \"#utility.yul\":3913:3915   */\n      0x20\n        /* \"#utility.yul\":3910:3911   */\n      dup2\n        /* \"#utility.yul\":3906:3916   */\n      add\n        /* \"#utility.yul\":3901:3916   */\n      swap1\n      pop\n        /* \"#utility.yul\":3877:3990   */\n      jump(tag_75)\n    tag_77:\n        /* \"#utility.yul\":4024:4025   */\n      0x00\n        /* \"#utility.yul\":4015:4021   */\n      dup5\n        /* \"#utility.yul\":4010:4013   */\n      dup5\n        /* \"#utility.yul\":4006:4022   */\n      add\n        /* \"#utility.yul\":3999:4026   */\n      mstore\n        /* \"#utility.yul\":3848:4032   */\n      pop\n        /* \"#utility.yul\":3786:4032   */\n      pop\n      pop\n      pop\n      jump\t// out\n        /* \"#utility.yul\":4038:4428   */\n    tag_30:\n        /* \"#utility.yul\":4144:4147   */\n      0x00\n        /* \"#utility.yul\":4172:4211   */\n      tag_79\n        /* \"#utility.yul\":4205:4210   */\n      dup3\n        /* \"#utility.yul\":4172:4211   */\n      tag_27\n      jump\t// in\n    tag_79:\n        /* \"#utility.yul\":4227:4316   */\n      tag_80\n        /* \"#utility.yul\":4309:4315   */\n      dup2\n        /* \"#utility.yul\":4304:4307   */\n      dup6\n        /* \"#utility.yul\":4227:4316   */\n      tag_28\n      jump\t// in\n    tag_80:\n        /* \"#utility.yul\":4220:4316   */\n      swap4\n      pop\n        /* \"#utility.yul\":4325:4390   */\n      tag_81\n        /* \"#utility.yul\":4383:4389   */\n      dup2\n        /* \"#utility.yul\":4378:4381   */\n      dup6\n        /* \"#utility.yul\":4371:4375   */\n      0x20\n        /* \"#utility.yul\":4364:4369   */\n      dup7\n        /* \"#utility.yul\":4360:4376   */\n      add\n        /* \"#utility.yul\":4325:4390   */\n      tag_29\n      jump\t// in\n    tag_81:\n        /* \"#utility.yul\":4415:4421   */\n      dup1\n        /* \"#utility.yul\":4410:4413   */\n      dup5\n        /* \"#utility.yul\":4406:4422   */\n      add\n        /* \"#utility.yul\":4399:4422   */\n      swap2\n      pop\n        /* \"#utility.yul\":4148:4428   */\n      pop\n        /* \"#utility.yul\":4038:4428   */\n      swap3\n      swap2\n      pop\n      pop\n      jump\t// out\n        /* \"#utility.yul\":4434:4709   */\n    tag_11:\n        /* \"#utility.yul\":4566:4569   */\n      0x00\n        /* \"#utility.yul\":4588:4683   */\n      tag_83\n        /* \"#utility.yul\":4679:4682   */\n      dup3\n        /* \"#utility.yul\":4670:4676   */\n      dup5\n        /* \"#utility.yul\":4588:4683   */\n      tag_30\n      jump\t// in\n    tag_83:\n        /* \"#utility.yul\":4581:4683   */\n      swap2\n      pop\n        /* \"#utility.yul\":4700:4703   */\n      dup2\n        /* \"#utility.yul\":4693:4703   */\n      swap1\n      pop\n        /* \"#utility.yul\":4434:4709   */\n      swap3\n      swap2\n      pop\n      pop\n      jump\t// out\n\n    auxdata: 0xa2646970667358221220561dd85cea5e1461fea3132f9fbdab6ab7ed39feccfe0a63058e47537bbe9a9064736f6c63430008120033\n}\n",
				"bytecode": {
					"linkReferences": {},
					"object": "610334610053600b82828239805160001a607314610046577f4e487b7100000000000000000000000000000000000000000000000000000000600052600060045260246000fd5b30600052607381538281f3fe73000000000000000000000000000000000000000030146080604052600436106100355760003560e01c80636a11b2a81461003a575b600080fd5b610054600480360381019061004f91906101f9565b61006a565b604051610061919061025b565b60405180910390f35b6000808260405160200161007e91906102e7565b60405160208183030381529060405280519060200120905080915050919050565b6000604051905090565b600080fd5b600080fd5b600080fd5b600080fd5b6000601f19601f8301169050919050565b7f4e487b7100000000000000000000000000000000000000000000000000000000600052604160045260246000fd5b610106826100bd565b810181811067ffffffffffffffff82111715610125576101246100ce565b5b80604052505050565b600061013861009f565b905061014482826100fd565b919050565b600067ffffffffffffffff821115610164576101636100ce565b5b61016d826100bd565b9050602081019050919050565b82818337600083830152505050565b600061019c61019784610149565b61012e565b9050828152602081018484840111156101b8576101b76100b8565b5b6101c384828561017a565b509392505050565b600082601f8301126101e0576101df6100b3565b5b81356101f0848260208601610189565b91505092915050565b60006020828403121561020f5761020e6100a9565b5b600082013567ffffffffffffffff81111561022d5761022c6100ae565b5b610239848285016101cb565b91505092915050565b6000819050919050565b61025581610242565b82525050565b6000602082019050610270600083018461024c565b92915050565b600081519050919050565b600081905092915050565b60005b838110156102aa57808201518184015260208101905061028f565b60008484015250505050565b60006102c182610276565b6102cb8185610281565b93506102db81856020860161028c565b80840191505092915050565b60006102f382846102b6565b91508190509291505056fea2646970667358221220561dd85cea5e1461fea3132f9fbdab6ab7ed39feccfe0a63058e47537bbe9a9064736f6c63430008120033",
					"opcodes": "PUSH2 0x334 PUSH2 0x53 PUSH1 0xB DUP3 DUP3 DUP3 CODECOPY DUP1 MLOAD PUSH1 0x0 BYTE PUSH1 0x73 EQ PUSH2 0x46 JUMPI PUSH32 0x4E487B7100000000000000000000000000000000000000000000000000000000 PUSH1 0x0 MSTORE PUSH1 0x0 PUSH1 0x4 MSTORE PUSH1 0x24 PUSH1 0x0 REVERT JUMPDEST ADDRESS PUSH1 0x0 MSTORE PUSH1 0x73 DUP2 MSTORE8 DUP3 DUP2 RETURN INVALID PUSH20 0x0 ADDRESS EQ PUSH1 0x80 PUSH1 0x40 MSTORE PUSH1 0x4 CALLDATASIZE LT PUSH2 0x35 JUMPI PUSH1 0x0 CALLDATALOAD PUSH1 0xE0 SHR DUP1 PUSH4 0x6A11B2A8 EQ PUSH2 0x3A JUMPI JUMPDEST PUSH1 0x0 DUP1 REVERT JUMPDEST PUSH2 0x54 PUSH1 0x4 DUP1 CALLDATASIZE SUB DUP2 ADD SWAP1 PUSH2 0x4F SWAP2 SWAP1 PUSH2 0x1F9 JUMP JUMPDEST PUSH2 0x6A JUMP JUMPDEST PUSH1 0x40 MLOAD PUSH2 0x61 SWAP2 SWAP1 PUSH2 0x25B JUMP JUMPDEST PUSH1 0x40 MLOAD DUP1 SWAP2 SUB SWAP1 RETURN JUMPDEST PUSH1 0x0 DUP1 DUP3 PUSH1 0x40 MLOAD PUSH1 0x20 ADD PUSH2 0x7E SWAP2 SWAP1 PUSH2 0x2E7 JUMP JUMPDEST PUSH1 0x40 MLOAD PUSH1 0x20 DUP2 DUP4 SUB SUB DUP2 MSTORE SWAP1 PUSH1 0x40 MSTORE DUP1 MLOAD SWAP1 PUSH1 0x20 ADD KECCAK256 SWAP1 POP DUP1 SWAP2 POP POP SWAP2 SWAP1 POP JUMP JUMPDEST PUSH1 0x0 PUSH1 0x40 MLOAD SWAP1 POP SWAP1 JUMP JUMPDEST PUSH1 0x0 DUP1 REVERT JUMPDEST PUSH1 0x0 DUP1 REVERT JUMPDEST PUSH1 0x0 DUP1 REVERT JUMPDEST PUSH1 0x0 DUP1 REVERT JUMPDEST PUSH1 0x0 PUSH1 0x1F NOT PUSH1 0x1F DUP4 ADD AND SWAP1 POP SWAP2 SWAP1 POP JUMP JUMPDEST PUSH32 0x4E487B7100000000000000000000000000000000000000000000000000000000 PUSH1 0x0 MSTORE PUSH1 0x41 PUSH1 0x4 MSTORE PUSH1 0x24 PUSH1 0x0 REVERT JUMPDEST PUSH2 0x106 DUP3 PUSH2 0xBD JUMP JUMPDEST DUP2 ADD DUP2 DUP2 LT PUSH8 0xFFFFFFFFFFFFFFFF DUP3 GT OR ISZERO PUSH2 0x125 JUMPI PUSH2 0x124 PUSH2 0xCE JUMP JUMPDEST JUMPDEST DUP1 PUSH1 0x40 MSTORE POP POP POP JUMP JUMPDEST PUSH1 0x0 PUSH2 0x138 PUSH2 0x9F JUMP JUMPDEST SWAP1 POP PUSH2 0x144 DUP3 DUP3 PUSH2 0xFD JUMP JUMPDEST SWAP2 SWAP1 POP JUMP JUMPDEST PUSH1 0x0 PUSH8 0xFFFFFFFFFFFFFFFF DUP3 GT ISZERO PUSH2 0x164 JUMPI PUSH2 0x163 PUSH2 0xCE JUMP JUMPDEST JUMPDEST PUSH2 0x16D DUP3 PUSH2 0xBD JUMP JUMPDEST SWAP1 POP PUSH1 0x20 DUP2 ADD SWAP1 POP SWAP2 SWAP1 POP JUMP JUMPDEST DUP3 DUP2 DUP4 CALLDATACOPY PUSH1 0x0 DUP4 DUP4 ADD MSTORE POP POP POP JUMP JUMPDEST PUSH1 0x0 PUSH2 0x19C PUSH2 0x197 DUP5 PUSH2 0x149 JUMP JUMPDEST PUSH2 0x12E JUMP JUMPDEST SWAP1 POP DUP3 DUP2 MSTORE PUSH1 0x20 DUP2 ADD DUP5 DUP5 DUP5 ADD GT ISZERO PUSH2 0x1B8 JUMPI PUSH2 0x1B7 PUSH2 0xB8 JUMP JUMPDEST JUMPDEST PUSH2 0x1C3 DUP5 DUP3 DUP6 PUSH2 0x17A JUMP JUMPDEST POP SWAP4 SWAP3 POP POP POP JUMP JUMPDEST PUSH1 0x0 DUP3 PUSH1 0x1F DUP4 ADD SLT PUSH2 0x1E0 JUMPI PUSH2 0x1DF PUSH2 0xB3 JUMP JUMPDEST JUMPDEST DUP2 CALLDATALOAD PUSH2 0x1F0 DUP5 DUP3 PUSH1 0x20 DUP7 ADD PUSH2 0x189 JUMP JUMPDEST SWAP2 POP POP SWAP3 SWAP2 POP POP JUMP JUMPDEST PUSH1 0x0 PUSH1 0x20 DUP3 DUP5 SUB SLT ISZERO PUSH2 0x20F JUMPI PUSH2 0x20E PUSH2 0xA9 JUMP JUMPDEST JUMPDEST PUSH1 0x0 DUP3 ADD CALLDATALOAD PUSH8 0xFFFFFFFFFFFFFFFF DUP2 GT ISZERO PUSH2 0x22D JUMPI PUSH2 0x22C PUSH2 0xAE JUMP JUMPDEST JUMPDEST PUSH2 0x239 DUP5 DUP3 DUP6 ADD PUSH2 0x1CB JUMP JUMPDEST SWAP2 POP POP SWAP3 SWAP2 POP POP JUMP JUMPDEST PUSH1 0x0 DUP2 SWAP1 POP SWAP2 SWAP1 POP JUMP JUMPDEST PUSH2 0x255 DUP2 PUSH2 0x242 JUMP JUMPDEST DUP3 MSTORE POP POP JUMP JUMPDEST PUSH1 0x0 PUSH1 0x20 DUP3 ADD SWAP1 POP PUSH2 0x270 PUSH1 0x0 DUP4 ADD DUP5 PUSH2 0x24C JUMP JUMPDEST SWAP3 SWAP2 POP POP JUMP JUMPDEST PUSH1 0x0 DUP2 MLOAD SWAP1 POP SWAP2 SWAP1 POP JUMP JUMPDEST PUSH1 0x0 DUP2 SWAP1 POP SWAP3 SWAP2 POP POP JUMP JUMPDEST PUSH1 0x0 JUMPDEST DUP4 DUP2 LT ISZERO PUSH2 0x2AA JUMPI DUP1 DUP3 ADD MLOAD DUP2 DUP5 ADD MSTORE PUSH1 0x20 DUP2 ADD SWAP1 POP PUSH2 0x28F JUMP JUMPDEST PUSH1 0x0 DUP5 DUP5 ADD MSTORE POP POP POP POP JUMP JUMPDEST PUSH1 0x0 PUSH2 0x2C1 DUP3 PUSH2 0x276 JUMP JUMPDEST PUSH2 0x2CB DUP2 DUP6 PUSH2 0x281 JUMP JUMPDEST SWAP4 POP PUSH2 0x2DB DUP2 DUP6 PUSH1 0x20 DUP7 ADD PUSH2 0x28C JUMP JUMPDEST DUP1 DUP5 ADD SWAP2 POP POP SWAP3 SWAP2 POP POP JUMP JUMPDEST PUSH1 0x0 PUSH2 0x2F3 DUP3 DUP5 PUSH2 0x2B6 JUMP JUMPDEST SWAP2 POP DUP2 SWAP1 POP SWAP3 SWAP2 POP POP JUMP INVALID LOG2 PUSH5 0x6970667358 0x22 SLT KECCAK256 JUMP SAR 0xD8 0x5C 0xEA 0x5E EQ PUSH2 0xFEA3 SGT 0x2F SWAP16 0xBD 0xAB PUSH11 0xB7ED39FECCFE0A63058E47 MSTORE8 PUSH28 0xBE9A9064736F6C634300081200330000000000000000000000000000 "
				},
				"gasEstimates": {
					"creation": {
						"codeDepositCost": "164000",
						"executionCost": "233",
						"totalCost": "164233"
					},
					"external": {
						"encode(string)": "infinite"
					}
				},
				"methodIdentifiers": {
					"encode(string)": "6a11b2a8"
				}
			},
			"storageLayout": {
				"storage": [],
				"types": null
			},
			"userdoc": {
				"kind": "user",
				"methods": {},
				"version": 1
			}
		}
	}
}