{
	"data": {
		"bytecode": {
			"linkReferences": {
				"main.sol": {
					"StringEncode": [
						{
							"length": 20,
							"start": 1557
						}
					]
				}
			},
			"object": "60806040523480156200001157600080fd5b5060405162000ed538038062000ed583398181016040528101906200003791906200012c565b81600460006101000a81548173ffffffffffffffffffffffffffffffffffffffff021916908373ffffffffffffffffffffffffffffffffffffffff16021790555080600081905550505062000173565b600080fd5b600073ffffffffffffffffffffffffffffffffffffffff82169050919050565b6000620000b9826200008c565b9050919050565b620000cb81620000ac565b8114620000d757600080fd5b50565b600081519050620000eb81620000c0565b92915050565b6000819050919050565b6200010681620000f1565b81146200011257600080fd5b50565b6000815190506200012681620000fb565b92915050565b6000806040838503121562000146576200014562000087565b5b60006200015685828601620000da565b9250506020620001698582860162000115565b9150509250929050565b610d5280620001836000396000f3fe6080604052600436106100745760003560e01c8063716415001161004e578063716415001461012e578063cab838181461016b578063f53d0a8e14610194578063ffa60b3b146101bf5761007b565b806305d0deba1461008957806342e14fc6146100b457806366e60208146100f15761007b565b3661007b57005b34801561008757600080fd5b005b34801561009557600080fd5b5061009e6101fc565b6040516100ab9190610529565b60405180910390f35b3480156100c057600080fd5b506100db60048036038101906100d69190610584565b610202565b6040516100e89190610641565b60405180910390f35b3480156100fd57600080fd5b5061011860048036038101906101139190610798565b6102a2565b6040516101259190610529565b60405180910390f35b34801561013a57600080fd5b5061015560048036038101906101509190610798565b6102d0565b6040516101629190610529565b60405180910390f35b34801561017757600080fd5b50610192600480360381019061018d919061098a565b6102fd565b005b3480156101a057600080fd5b506101a9610467565b6040516101b69190610a43565b60405180910390f35b3480156101cb57600080fd5b506101e660048036038101906101e19190610798565b61048d565b6040516101f39190610a77565b60405180910390f35b60005481565b6003602052806000526040600020600091509050805461022190610ac1565b80601f016020809104026020016040519081016040528092919081815260200182805461024d90610ac1565b801561029a5780601f1061026f5761010080835404028352916020019161029a565b820191906000526020600020905b81548152906001019060200180831161027d57829003601f168201915b505050505081565b6002818051602081018201805184825260208301602085012081835280955050505050506000915090505481565b6000806002836040516102e39190610b2e565b908152602001604051809103902054905080915050919050565b33600460009054906101000a900473ffffffffffffffffffffffffffffffffffffffff1673ffffffffffffffffffffffffffffffffffffffff168173ffffffffffffffffffffffffffffffffffffffff161461038e576040517f08c379a000000000000000000000000000000000000000000000000000000000815260040161038590610b91565b60405180910390fd5b6000600460009054906101000a900473ffffffffffffffffffffffffffffffffffffffff1673ffffffffffffffffffffffffffffffffffffffff163373ffffffffffffffffffffffffffffffffffffffff160361045c575b83518110156104575782818151811061040257610401610bb1565b5b6020026020010151600285838151811061041f5761041e610bb1565b5b60200260200101516040516104349190610b2e565b9081526020016040518091039020819055508061045090610c0f565b90506103e6565b610461565b600080fd5b50505050565b600460009054906101000a900473ffffffffffffffffffffffffffffffffffffffff1681565b60008173__$b06880d68a2e0855fb210f67ef1bace415$__636a11b2a890916040518263ffffffff1660e01b81526004016104c89190610ca1565b602060405180830381865af41580156104e5573d6000803e3d6000fd5b505050506040513d601f19601f820116820180604052508101906105099190610cef565b9050919050565b6000819050919050565b61052381610510565b82525050565b600060208201905061053e600083018461051a565b92915050565b6000604051905090565b600080fd5b600080fd5b61056181610510565b811461056c57600080fd5b50565b60008135905061057e81610558565b92915050565b60006020828403121561059a5761059961054e565b5b60006105a88482850161056f565b91505092915050565b600081519050919050565b600082825260208201905092915050565b60005b838110156105eb5780820151818401526020810190506105d0565b60008484015250505050565b6000601f19601f8301169050919050565b6000610613826105b1565b61061d81856105bc565b935061062d8185602086016105cd565b610636816105f7565b840191505092915050565b6000602082019050818103600083015261065b8184610608565b905092915050565b600080fd5b600080fd5b7f4e487b7100000000000000000000000000000000000000000000000000000000600052604160045260246000fd5b6106a5826105f7565b810181811067ffffffffffffffff821117156106c4576106c361066d565b5b80604052505050565b60006106d7610544565b90506106e3828261069c565b919050565b600067ffffffffffffffff8211156107035761070261066d565b5b61070c826105f7565b9050602081019050919050565b82818337600083830152505050565b600061073b610736846106e8565b6106cd565b90508281526020810184848401111561075757610756610668565b5b610762848285610719565b509392505050565b600082601f83011261077f5761077e610663565b5b813561078f848260208601610728565b91505092915050565b6000602082840312156107ae576107ad61054e565b5b600082013567ffffffffffffffff8111156107cc576107cb610553565b5b6107d88482850161076a565b91505092915050565b600067ffffffffffffffff8211156107fc576107fb61066d565b5b602082029050602081019050919050565b600080fd5b6000610825610820846107e1565b6106cd565b905080838252602082019050602084028301858111156108485761084761080d565b5b835b8181101561088f57803567ffffffffffffffff81111561086d5761086c610663565b5b80860161087a898261076a565b8552602085019450505060208101905061084a565b5050509392505050565b600082601f8301126108ae576108ad610663565b5b81356108be848260208601610812565b91505092915050565b600067ffffffffffffffff8211156108e2576108e161066d565b5b602082029050602081019050919050565b6000610906610901846108c7565b6106cd565b905080838252602082019050602084028301858111156109295761092861080d565b5b835b81811015610952578061093e888261056f565b84526020840193505060208101905061092b565b5050509392505050565b600082601f83011261097157610970610663565b5b81356109818482602086016108f3565b91505092915050565b600080604083850312156109a1576109a061054e565b5b600083013567ffffffffffffffff8111156109bf576109be610553565b5b6109cb85828601610899565b925050602083013567ffffffffffffffff8111156109ec576109eb610553565b5b6109f88582860161095c565b9150509250929050565b600073ffffffffffffffffffffffffffffffffffffffff82169050919050565b6000610a2d82610a02565b9050919050565b610a3d81610a22565b82525050565b6000602082019050610a586000830184610a34565b92915050565b6000819050919050565b610a7181610a5e565b82525050565b6000602082019050610a8c6000830184610a68565b92915050565b7f4e487b7100000000000000000000000000000000000000000000000000000000600052602260045260246000fd5b60006002820490506001821680610ad957607f821691505b602082108103610aec57610aeb610a92565b5b50919050565b600081905092915050565b6000610b08826105b1565b610b128185610af2565b9350610b228185602086016105cd565b80840191505092915050565b6000610b3a8284610afd565b915081905092915050565b7f57726f6e672061646d696e697374726174696f6e210000000000000000000000600082015250565b6000610b7b6015836105bc565b9150610b8682610b45565b602082019050919050565b60006020820190508181036000830152610baa81610b6e565b9050919050565b7f4e487b7100000000000000000000000000000000000000000000000000000000600052603260045260246000fd5b7f4e487b7100000000000000000000000000000000000000000000000000000000600052601160045260246000fd5b6000610c1a82610510565b91507fffffffffffffffffffffffffffffffffffffffffffffffffffffffffffffffff8203610c4c57610c4b610be0565b5b600182019050919050565b600082825260208201905092915050565b6000610c73826105b1565b610c7d8185610c57565b9350610c8d8185602086016105cd565b610c96816105f7565b840191505092915050565b60006020820190508181036000830152610cbb8184610c68565b905092915050565b610ccc81610a5e565b8114610cd757600080fd5b50565b600081519050610ce981610cc3565b92915050565b600060208284031215610d0557610d0461054e565b5b6000610d1384828501610cda565b9150509291505056fea2646970667358221220144bbbfa05aa7647ad090cf22158275bcda7ae101499702232009a51932b0ca764736f6c63430008120033",
			"opcodes": "PUSH1 0x80 PUSH1 0x40 MSTORE CALLVALUE DUP1 ISZERO PUSH3 0x11 JUMPI PUSH1 0x0 DUP1 REVERT JUMPDEST POP PUSH1 0x40 MLOAD PUSH3 0xED5 CODESIZE SUB DUP1 PUSH3 0xED5 DUP4 CODECOPY DUP2 DUP2 ADD PUSH1 0x40 MSTORE DUP2 ADD SWAP1 PUSH3 0x37 SWAP2 SWAP1 PUSH3 0x12C JUMP JUMPDEST DUP2 PUSH1 0x4 PUSH1 0x0 PUSH2 0x100 EXP DUP2 SLOAD DUP2 PUSH20 0xFFFFFFFFFFFFFFFFFFFFFFFFFFFFFFFFFFFFFFFF MUL NOT AND SWAP1 DUP4 PUSH20 0xFFFFFFFFFFFFFFFFFFFFFFFFFFFFFFFFFFFFFFFF AND MUL OR SWAP1 SSTORE POP DUP1 PUSH1 0x0 DUP2 SWAP1 SSTORE POP POP POP PUSH3 0x173 JUMP JUMPDEST PUSH1 0x0 DUP1 REVERT JUMPDEST PUSH1 0x0 PUSH20 0xFFFFFFFFFFFFFFFFFFFFFFFFFFFFFFFFFFFFFFFF DUP3 AND SWAP1 POP SWAP2 SWAP1 POP JUMP JUMPDEST PUSH1 0x0 PUSH3 0xB9 DUP3 PUSH3 0x8C JUMP JUMPDEST SWAP1 POP SWAP2 SWAP1 POP JUMP JUMPDEST PUSH3 0xCB DUP2 PUSH3 0xAC JUMP JUMPDEST DUP2 EQ PUSH3 0xD7 JUMPI PUSH1 0x0 DUP1 REVERT JUMPDEST POP JUMP JUMPDEST PUSH1 0x0 DUP2 MLOAD SWAP1 POP PUSH3 0xEB DUP2 PUSH3 0xC0 JUMP JUMPDEST SWAP3 SWAP2 POP POP JUMP JUMPDEST PUSH1 0x0 DUP2 SWAP1 POP SWAP2 SWAP1 POP JUMP JUMPDEST PUSH3 0x106 DUP2 PUSH3 0xF1 JUMP JUMPDEST DUP2 EQ PUSH3 0x112 JUMPI PUSH1 0x0 DUP1 REVERT JUMPDEST POP JUMP JUMPDEST PUSH1 0x0 DUP2 MLOAD SWAP1 POP PUSH3 0x126 DUP2 PUSH3 0xFB JUMP JUMPDEST SWAP3 SWAP2 POP POP JUMP JUMPDEST PUSH1 0x0 DUP1 PUSH1 0x40 DUP4 DUP6 SUB SLT ISZERO PUSH3 0x146 JUMPI PUSH3 0x145 PUSH3 0x87 JUMP JUMPDEST JUMPDEST PUSH1 0x0 PUSH3 0x156 DUP6 DUP3 DUP7 ADD PUSH3 0xDA JUMP JUMPDEST SWAP3 POP POP PUSH1 0x20 PUSH3 0x169 DUP6 DUP3 DUP7 ADD PUSH3 0x115 JUMP JUMPDEST SWAP2 POP POP SWAP3 POP SWAP3 SWAP1 POP JUMP JUMPDEST PUSH2 0xD52 DUP1 PUSH3 0x183 PUSH1 0x0 CODECOPY PUSH1 0x0 RETURN INVALID PUSH1 0x80 PUSH1 0x40 MSTORE PUSH1 0x4 CALLDATASIZE LT PUSH2 0x74 JUMPI PUSH1 0x0 CALLDATALOAD PUSH1 0xE0 SHR DUP1 PUSH4 0x71641500 GT PUSH2 0x4E JUMPI DUP1 PUSH4 0x71641500 EQ PUSH2 0x12E JUMPI DUP1 PUSH4 0xCAB83818 EQ PUSH2 0x16B JUMPI DUP1 PUSH4 0xF53D0A8E EQ PUSH2 0x194 JUMPI DUP1 PUSH4 0xFFA60B3B EQ PUSH2 0x1BF JUMPI PUSH2 0x7B JUMP JUMPDEST DUP1 PUSH4 0x5D0DEBA EQ PUSH2 0x89 JUMPI DUP1 PUSH4 0x42E14FC6 EQ PUSH2 0xB4 JUMPI DUP1 PUSH4 0x66E60208 EQ PUSH2 0xF1 JUMPI PUSH2 0x7B JUMP JUMPDEST CALLDATASIZE PUSH2 0x7B JUMPI STOP JUMPDEST CALLVALUE DUP1 ISZERO PUSH2 0x87 JUMPI PUSH1 0x0 DUP1 REVERT JUMPDEST STOP JUMPDEST CALLVALUE DUP1 ISZERO PUSH2 0x95 JUMPI PUSH1 0x0 DUP1 REVERT JUMPDEST POP PUSH2 0x9E PUSH2 0x1FC JUMP JUMPDEST PUSH1 0x40 MLOAD PUSH2 0xAB SWAP2 SWAP1 PUSH2 0x529 JUMP JUMPDEST PUSH1 0x40 MLOAD DUP1 SWAP2 SUB SWAP1 RETURN JUMPDEST CALLVALUE DUP1 ISZERO PUSH2 0xC0 JUMPI PUSH1 0x0 DUP1 REVERT JUMPDEST POP PUSH2 0xDB PUSH1 0x4 DUP1 CALLDATASIZE SUB DUP2 ADD SWAP1 PUSH2 0xD6 SWAP2 SWAP1 PUSH2 0x584 JUMP JUMPDEST PUSH2 0x202 JUMP JUMPDEST PUSH1 0x40 MLOAD PUSH2 0xE8 SWAP2 SWAP1 PUSH2 0x641 JUMP JUMPDEST PUSH1 0x40 MLOAD DUP1 SWAP2 SUB SWAP1 RETURN JUMPDEST CALLVALUE DUP1 ISZERO PUSH2 0xFD JUMPI PUSH1 0x0 DUP1 REVERT JUMPDEST POP PUSH2 0x118 PUSH1 0x4 DUP1 CALLDATASIZE SUB DUP2 ADD SWAP1 PUSH2 0x113 SWAP2 SWAP1 PUSH2 0x798 JUMP JUMPDEST PUSH2 0x2A2 JUMP JUMPDEST PUSH1 0x40 MLOAD PUSH2 0x125 SWAP2 SWAP1 PUSH2 0x529 JUMP JUMPDEST PUSH1 0x40 MLOAD DUP1 SWAP2 SUB SWAP1 RETURN JUMPDEST CALLVALUE DUP1 ISZERO PUSH2 0x13A JUMPI PUSH1 0x0 DUP1 REVERT JUMPDEST POP PUSH2 0x155 PUSH1 0x4 DUP1 CALLDATASIZE SUB DUP2 ADD SWAP1 PUSH2 0x150 SWAP2 SWAP1 PUSH2 0x798 JUMP JUMPDEST PUSH2 0x2D0 JUMP JUMPDEST PUSH1 0x40 MLOAD PUSH2 0x162 SWAP2 SWAP1 PUSH2 0x529 JUMP JUMPDEST PUSH1 0x40 MLOAD DUP1 SWAP2 SUB SWAP1 RETURN JUMPDEST CALLVALUE DUP1 ISZERO PUSH2 0x177 JUMPI PUSH1 0x0 DUP1 REVERT JUMPDEST POP PUSH2 0x192 PUSH1 0x4 DUP1 CALLDATASIZE SUB DUP2 ADD SWAP1 PUSH2 0x18D SWAP2 SWAP1 PUSH2 0x98A JUMP JUMPDEST PUSH2 0x2FD JUMP JUMPDEST STOP JUMPDEST CALLVALUE DUP1 ISZERO PUSH2 0x1A0 JUMPI PUSH1 0x0 DUP1 REVERT JUMPDEST POP PUSH2 0x1A9 PUSH2 0x467 JUMP JUMPDEST PUSH1 0x40 MLOAD PUSH2 0x1B6 SWAP2 SWAP1 PUSH2 0xA43 JUMP JUMPDEST PUSH1 0x40 MLOAD DUP1 SWAP2 SUB SWAP1 RETURN JUMPDEST CALLVALUE DUP1 ISZERO PUSH2 0x1CB JUMPI PUSH1 0x0 DUP1 REVERT JUMPDEST POP PUSH2 0x1E6 PUSH1 0x4 DUP1 CALLDATASIZE SUB DUP2 ADD SWAP1 PUSH2 0x1E1 SWAP2 SWAP1 PUSH2 0x798 JUMP JUMPDEST PUSH2 0x48D JUMP JUMPDEST PUSH1 0x40 MLOAD PUSH2 0x1F3 SWAP2 SWAP1 PUSH2 0xA77 JUMP JUMPDEST PUSH1 0x40 MLOAD DUP1 SWAP2 SUB SWAP1 RETURN JUMPDEST PUSH1 0x0 SLOAD DUP2 JUMP JUMPDEST PUSH1 0x3 PUSH1 0x20 MSTORE DUP1 PUSH1 0x0 MSTORE PUSH1 0x40 PUSH1 0x0 KECCAK256 PUSH1 0x0 SWAP2 POP SWAP1 POP DUP1 SLOAD PUSH2 0x221 SWAP1 PUSH2 0xAC1 JUMP JUMPDEST DUP1 PUSH1 0x1F ADD PUSH1 0x20 DUP1 SWAP2 DIV MUL PUSH1 0x20 ADD PUSH1 0x40 MLOAD SWAP1 DUP2 ADD PUSH1 0x40 MSTORE DUP1 SWAP3 SWAP2 SWAP1 DUP2 DUP2 MSTORE PUSH1 0x20 ADD DUP3 DUP1 SLOAD PUSH2 0x24D SWAP1 PUSH2 0xAC1 JUMP JUMPDEST DUP1 ISZERO PUSH2 0x29A JUMPI DUP1 PUSH1 0x1F LT PUSH2 0x26F JUMPI PUSH2 0x100 DUP1 DUP4 SLOAD DIV MUL DUP4 MSTORE SWAP2 PUSH1 0x20 ADD SWAP2 PUSH2 0x29A JUMP JUMPDEST DUP3 ADD SWAP2 SWAP1 PUSH1 0x0 MSTORE PUSH1 0x20 PUSH1 0x0 KECCAK256 SWAP1 JUMPDEST DUP2 SLOAD DUP2 MSTORE SWAP1 PUSH1 0x1 ADD SWAP1 PUSH1 0x20 ADD DUP1 DUP4 GT PUSH2 0x27D JUMPI DUP3 SWAP1 SUB PUSH1 0x1F AND DUP3 ADD SWAP2 JUMPDEST POP POP POP POP POP DUP2 JUMP JUMPDEST PUSH1 0x2 DUP2 DUP1 MLOAD PUSH1 0x20 DUP2 ADD DUP3 ADD DUP1 MLOAD DUP5 DUP3 MSTORE PUSH1 0x20 DUP4 ADD PUSH1 0x20 DUP6 ADD KECCAK256 DUP2 DUP4 MSTORE DUP1 SWAP6 POP POP POP POP POP POP PUSH1 0x0 SWAP2 POP SWAP1 POP SLOAD DUP2 JUMP JUMPDEST PUSH1 0x0 DUP1 PUSH1 0x2 DUP4 PUSH1 0x40 MLOAD PUSH2 0x2E3 SWAP2 SWAP1 PUSH2 0xB2E JUMP JUMPDEST SWAP1 DUP2 MSTORE PUSH1 0x20 ADD PUSH1 0x40 MLOAD DUP1 SWAP2 SUB SWAP1 KECCAK256 SLOAD SWAP1 POP DUP1 SWAP2 POP POP SWAP2 SWAP1 POP JUMP JUMPDEST CALLER PUSH1 0x4 PUSH1 0x0 SWAP1 SLOAD SWAP1 PUSH2 0x100 EXP SWAP1 DIV PUSH20 0xFFFFFFFFFFFFFFFFFFFFFFFFFFFFFFFFFFFFFFFF AND PUSH20 0xFFFFFFFFFFFFFFFFFFFFFFFFFFFFFFFFFFFFFFFF AND DUP2 PUSH20 0xFFFFFFFFFFFFFFFFFFFFFFFFFFFFFFFFFFFFFFFF AND EQ PUSH2 0x38E JUMPI PUSH1 0x40 MLOAD PUSH32 0x8C379A000000000000000000000000000000000000000000000000000000000 DUP2 MSTORE PUSH1 0x4 ADD PUSH2 0x385 SWAP1 PUSH2 0xB91 JUMP JUMPDEST PUSH1 0x40 MLOAD DUP1 SWAP2 SUB SWAP1 REVERT JUMPDEST PUSH1 0x0 PUSH1 0x4 PUSH1 0x0 SWAP1 SLOAD SWAP1 PUSH2 0x100 EXP SWAP1 DIV PUSH20 0xFFFFFFFFFFFFFFFFFFFFFFFFFFFFFFFFFFFFFFFF AND PUSH20 0xFFFFFFFFFFFFFFFFFFFFFFFFFFFFFFFFFFFFFFFF AND CALLER PUSH20 0xFFFFFFFFFFFFFFFFFFFFFFFFFFFFFFFFFFFFFFFF AND SUB PUSH2 0x45C JUMPI JUMPDEST DUP4 MLOAD DUP2 LT ISZERO PUSH2 0x457 JUMPI DUP3 DUP2 DUP2 MLOAD DUP2 LT PUSH2 0x402 JUMPI PUSH2 0x401 PUSH2 0xBB1 JUMP JUMPDEST JUMPDEST PUSH1 0x20 MUL PUSH1 0x20 ADD ADD MLOAD PUSH1 0x2 DUP6 DUP4 DUP2 MLOAD DUP2 LT PUSH2 0x41F JUMPI PUSH2 0x41E PUSH2 0xBB1 JUMP JUMPDEST JUMPDEST PUSH1 0x20 MUL PUSH1 0x20 ADD ADD MLOAD PUSH1 0x40 MLOAD PUSH2 0x434 SWAP2 SWAP1 PUSH2 0xB2E JUMP JUMPDEST SWAP1 DUP2 MSTORE PUSH1 0x20 ADD PUSH1 0x40 MLOAD DUP1 SWAP2 SUB SWAP1 KECCAK256 DUP2 SWAP1 SSTORE POP DUP1 PUSH2 0x450 SWAP1 PUSH2 0xC0F JUMP JUMPDEST SWAP1 POP PUSH2 0x3E6 JUMP JUMPDEST PUSH2 0x461 JUMP JUMPDEST PUSH1 0x0 DUP1 REVERT JUMPDEST POP POP POP POP JUMP JUMPDEST PUSH1 0x4 PUSH1 0x0 SWAP1 SLOAD SWAP1 PUSH2 0x100 EXP SWAP1 DIV PUSH20 0xFFFFFFFFFFFFFFFFFFFFFFFFFFFFFFFFFFFFFFFF AND DUP2 JUMP JUMPDEST PUSH1 0x0 DUP2 PUSH20 0x0 PUSH4 0x6A11B2A8 SWAP1 SWAP2 PUSH1 0x40 MLOAD DUP3 PUSH4 0xFFFFFFFF AND PUSH1 0xE0 SHL DUP2 MSTORE PUSH1 0x4 ADD PUSH2 0x4C8 SWAP2 SWAP1 PUSH2 0xCA1 JUMP JUMPDEST PUSH1 0x20 PUSH1 0x40 MLOAD DUP1 DUP4 SUB DUP2 DUP7 GAS DELEGATECALL ISZERO DUP1 ISZERO PUSH2 0x4E5 JUMPI RETURNDATASIZE PUSH1 0x0 DUP1 RETURNDATACOPY RETURNDATASIZE PUSH1 0x0 REVERT JUMPDEST POP POP POP POP PUSH1 0x40 MLOAD RETURNDATASIZE PUSH1 0x1F NOT PUSH1 0x1F DUP3 ADD AND DUP3 ADD DUP1 PUSH1 0x40 MSTORE POP DUP2 ADD SWAP1 PUSH2 0x509 SWAP2 SWAP1 PUSH2 0xCEF JUMP JUMPDEST SWAP1 POP SWAP2 SWAP1 POP JUMP JUMPDEST PUSH1 0x0 DUP2 SWAP1 POP SWAP2 SWAP1 POP JUMP JUMPDEST PUSH2 0x523 DUP2 PUSH2 0x510 JUMP JUMPDEST DUP3 MSTORE POP POP JUMP JUMPDEST PUSH1 0x0 PUSH1 0x20 DUP3 ADD SWAP1 POP PUSH2 0x53E PUSH1 0x0 DUP4 ADD DUP5 PUSH2 0x51A JUMP JUMPDEST SWAP3 SWAP2 POP POP JUMP JUMPDEST PUSH1 0x0 PUSH1 0x40 MLOAD SWAP1 POP SWAP1 JUMP JUMPDEST PUSH1 0x0 DUP1 REVERT JUMPDEST PUSH1 0x0 DUP1 REVERT JUMPDEST PUSH2 0x561 DUP2 PUSH2 0x510 JUMP JUMPDEST DUP2 EQ PUSH2 0x56C JUMPI PUSH1 0x0 DUP1 REVERT JUMPDEST POP JUMP JUMPDEST PUSH1 0x0 DUP2 CALLDATALOAD SWAP1 POP PUSH2 0x57E DUP2 PUSH2 0x558 JUMP JUMPDEST SWAP3 SWAP2 POP POP JUMP JUMPDEST PUSH1 0x0 PUSH1 0x20 DUP3 DUP5 SUB SLT ISZERO PUSH2 0x59A JUMPI PUSH2 0x599 PUSH2 0x54E JUMP JUMPDEST JUMPDEST PUSH1 0x0 PUSH2 0x5A8 DUP5 DUP3 DUP6 ADD PUSH2 0x56F JUMP JUMPDEST SWAP2 POP POP SWAP3 SWAP2 POP POP JUMP JUMPDEST PUSH1 0x0 DUP2 MLOAD SWAP1 POP SWAP2 SWAP1 POP JUMP JUMPDEST PUSH1 0x0 DUP3 DUP3 MSTORE PUSH1 0x20 DUP3 ADD SWAP1 POP SWAP3 SWAP2 POP POP JUMP JUMPDEST PUSH1 0x0 JUMPDEST DUP4 DUP2 LT ISZERO PUSH2 0x5EB JUMPI DUP1 DUP3 ADD MLOAD DUP2 DUP5 ADD MSTORE PUSH1 0x20 DUP2 ADD SWAP1 POP PUSH2 0x5D0 JUMP JUMPDEST PUSH1 0x0 DUP5 DUP5 ADD MSTORE POP POP POP POP JUMP JUMPDEST PUSH1 0x0 PUSH1 0x1F NOT PUSH1 0x1F DUP4 ADD AND SWAP1 POP SWAP2 SWAP1 POP JUMP JUMPDEST PUSH1 0x0 PUSH2 0x613 DUP3 PUSH2 0x5B1 JUMP JUMPDEST PUSH2 0x61D DUP2 DUP6 PUSH2 0x5BC JUMP JUMPDEST SWAP4 POP PUSH2 0x62D DUP2 DUP6 PUSH1 0x20 DUP7 ADD PUSH2 0x5CD JUMP JUMPDEST PUSH2 0x636 DUP2 PUSH2 0x5F7 JUMP JUMPDEST DUP5 ADD SWAP2 POP POP SWAP3 SWAP2 POP POP JUMP JUMPDEST PUSH1 0x0 PUSH1 0x20 DUP3 ADD SWAP1 POP DUP2 DUP2 SUB PUSH1 0x0 DUP4 ADD MSTORE PUSH2 0x65B DUP2 DUP5 PUSH2 0x608 JUMP JUMPDEST SWAP1 POP SWAP3 SWAP2 POP POP JUMP JUMPDEST PUSH1 0x0 DUP1 REVERT JUMPDEST PUSH1 0x0 DUP1 REVERT JUMPDEST PUSH32 0x4E487B7100000000000000000000000000000000000000000000000000000000 PUSH1 0x0 MSTORE PUSH1 0x41 PUSH1 0x4 MSTORE PUSH1 0x24 PUSH1 0x0 REVERT JUMPDEST PUSH2 0x6A5 DUP3 PUSH2 0x5F7 JUMP JUMPDEST DUP2 ADD DUP2 DUP2 LT PUSH8 0xFFFFFFFFFFFFFFFF DUP3 GT OR ISZERO PUSH2 0x6C4 JUMPI PUSH2 0x6C3 PUSH2 0x66D JUMP JUMPDEST JUMPDEST DUP1 PUSH1 0x40 MSTORE POP POP POP JUMP JUMPDEST PUSH1 0x0 PUSH2 0x6D7 PUSH2 0x544 JUMP JUMPDEST SWAP1 POP PUSH2 0x6E3 DUP3 DUP3 PUSH2 0x69C JUMP JUMPDEST SWAP2 SWAP1 POP JUMP JUMPDEST PUSH1 0x0 PUSH8 0xFFFFFFFFFFFFFFFF DUP3 GT ISZERO PUSH2 0x703 JUMPI PUSH2 0x702 PUSH2 0x66D JUMP JUMPDEST JUMPDEST PUSH2 0x70C DUP3 PUSH2 0x5F7 JUMP JUMPDEST SWAP1 POP PUSH1 0x20 DUP2 ADD SWAP1 POP SWAP2 SWAP1 POP JUMP JUMPDEST DUP3 DUP2 DUP4 CALLDATACOPY PUSH1 0x0 DUP4 DUP4 ADD MSTORE POP POP POP JUMP JUMPDEST PUSH1 0x0 PUSH2 0x73B PUSH2 0x736 DUP5 PUSH2 0x6E8 JUMP JUMPDEST PUSH2 0x6CD JUMP JUMPDEST SWAP1 POP DUP3 DUP2 MSTORE PUSH1 0x20 DUP2 ADD DUP5 DUP5 DUP5 ADD GT ISZERO PUSH2 0x757 JUMPI PUSH2 0x756 PUSH2 0x668 JUMP JUMPDEST JUMPDEST PUSH2 0x762 DUP5 DUP3 DUP6 PUSH2 0x719 JUMP JUMPDEST POP SWAP4 SWAP3 POP POP POP JUMP JUMPDEST PUSH1 0x0 DUP3 PUSH1 0x1F DUP4 ADD SLT PUSH2 0x77F JUMPI PUSH2 0x77E PUSH2 0x663 JUMP JUMPDEST JUMPDEST DUP2 CALLDATALOAD PUSH2 0x78F DUP5 DUP3 PUSH1 0x20 DUP7 ADD PUSH2 0x728 JUMP JUMPDEST SWAP2 POP POP SWAP3 SWAP2 POP POP JUMP JUMPDEST PUSH1 0x0 PUSH1 0x20 DUP3 DUP5 SUB SLT ISZERO PUSH2 0x7AE JUMPI PUSH2 0x7AD PUSH2 0x54E JUMP JUMPDEST JUMPDEST PUSH1 0x0 DUP3 ADD CALLDATALOAD PUSH8 0xFFFFFFFFFFFFFFFF DUP2 GT ISZERO PUSH2 0x7CC JUMPI PUSH2 0x7CB PUSH2 0x553 JUMP JUMPDEST JUMPDEST PUSH2 0x7D8 DUP5 DUP3 DUP6 ADD PUSH2 0x76A JUMP JUMPDEST SWAP2 POP POP SWAP3 SWAP2 POP POP JUMP JUMPDEST PUSH1 0x0 PUSH8 0xFFFFFFFFFFFFFFFF DUP3 GT ISZERO PUSH2 0x7FC JUMPI PUSH2 0x7FB PUSH2 0x66D JUMP JUMPDEST JUMPDEST PUSH1 0x20 DUP3 MUL SWAP1 POP PUSH1 0x20 DUP2 ADD SWAP1 POP SWAP2 SWAP1 POP JUMP JUMPDEST PUSH1 0x0 DUP1 REVERT JUMPDEST PUSH1 0x0 PUSH2 0x825 PUSH2 0x820 DUP5 PUSH2 0x7E1 JUMP JUMPDEST PUSH2 0x6CD JUMP JUMPDEST SWAP1 POP DUP1 DUP4 DUP3 MSTORE PUSH1 0x20 DUP3 ADD SWAP1 POP PUSH1 0x20 DUP5 MUL DUP4 ADD DUP6 DUP2 GT ISZERO PUSH2 0x848 JUMPI PUSH2 0x847 PUSH2 0x80D JUMP JUMPDEST JUMPDEST DUP4 JUMPDEST DUP2 DUP2 LT ISZERO PUSH2 0x88F JUMPI DUP1 CALLDATALOAD PUSH8 0xFFFFFFFFFFFFFFFF DUP2 GT ISZERO PUSH2 0x86D JUMPI PUSH2 0x86C PUSH2 0x663 JUMP JUMPDEST JUMPDEST DUP1 DUP7 ADD PUSH2 0x87A DUP10 DUP3 PUSH2 0x76A JUMP JUMPDEST DUP6 MSTORE PUSH1 0x20 DUP6 ADD SWAP5 POP POP POP PUSH1 0x20 DUP2 ADD SWAP1 POP PUSH2 0x84A JUMP JUMPDEST POP POP POP SWAP4 SWAP3 POP POP POP JUMP JUMPDEST PUSH1 0x0 DUP3 PUSH1 0x1F DUP4 ADD SLT PUSH2 0x8AE JUMPI PUSH2 0x8AD PUSH2 0x663 JUMP JUMPDEST JUMPDEST DUP2 CALLDATALOAD PUSH2 0x8BE DUP5 DUP3 PUSH1 0x20 DUP7 ADD PUSH2 0x812 JUMP JUMPDEST SWAP2 POP POP SWAP3 SWAP2 POP POP JUMP JUMPDEST PUSH1 0x0 PUSH8 0xFFFFFFFFFFFFFFFF DUP3 GT ISZERO PUSH2 0x8E2 JUMPI PUSH2 0x8E1 PUSH2 0x66D JUMP JUMPDEST JUMPDEST PUSH1 0x20 DUP3 MUL SWAP1 POP PUSH1 0x20 DUP2 ADD SWAP1 POP SWAP2 SWAP1 POP JUMP JUMPDEST PUSH1 0x0 PUSH2 0x906 PUSH2 0x901 DUP5 PUSH2 0x8C7 JUMP JUMPDEST PUSH2 0x6CD JUMP JUMPDEST SWAP1 POP DUP1 DUP4 DUP3 MSTORE PUSH1 0x20 DUP3 ADD SWAP1 POP PUSH1 0x20 DUP5 MUL DUP4 ADD DUP6 DUP2 GT ISZERO PUSH2 0x929 JUMPI PUSH2 0x928 PUSH2 0x80D JUMP JUMPDEST JUMPDEST DUP4 JUMPDEST DUP2 DUP2 LT ISZERO PUSH2 0x952 JUMPI DUP1 PUSH2 0x93E DUP9 DUP3 PUSH2 0x56F JUMP JUMPDEST DUP5 MSTORE PUSH1 0x20 DUP5 ADD SWAP4 POP POP PUSH1 0x20 DUP2 ADD SWAP1 POP PUSH2 0x92B JUMP JUMPDEST POP POP POP SWAP4 SWAP3 POP POP POP JUMP JUMPDEST PUSH1 0x0 DUP3 PUSH1 0x1F DUP4 ADD SLT PUSH2 0x971 JUMPI PUSH2 0x970 PUSH2 0x663 JUMP JUMPDEST JUMPDEST DUP2 CALLDATALOAD PUSH2 0x981 DUP5 DUP3 PUSH1 0x20 DUP7 ADD PUSH2 0x8F3 JUMP JUMPDEST SWAP2 POP POP SWAP3 SWAP2 POP POP JUMP JUMPDEST PUSH1 0x0 DUP1 PUSH1 0x40 DUP4 DUP6 SUB SLT ISZERO PUSH2 0x9A1 JUMPI PUSH2 0x9A0 PUSH2 0x54E JUMP JUMPDEST JUMPDEST PUSH1 0x0 DUP4 ADD CALLDATALOAD PUSH8 0xFFFFFFFFFFFFFFFF DUP2 GT ISZERO PUSH2 0x9BF JUMPI PUSH2 0x9BE PUSH2 0x553 JUMP JUMPDEST JUMPDEST PUSH2 0x9CB DUP6 DUP3 DUP7 ADD PUSH2 0x899 JUMP JUMPDEST SWAP3 POP POP PUSH1 0x20 DUP4 ADD CALLDATALOAD PUSH8 0xFFFFFFFFFFFFFFFF DUP2 GT ISZERO PUSH2 0x9EC JUMPI PUSH2 0x9EB PUSH2 0x553 JUMP JUMPDEST JUMPDEST PUSH2 0x9F8 DUP6 DUP3 DUP7 ADD PUSH2 0x95C JUMP JUMPDEST SWAP2 POP POP SWAP3 POP SWAP3 SWAP1 POP JUMP JUMPDEST PUSH1 0x0 PUSH20 0xFFFFFFFFFFFFFFFFFFFFFFFFFFFFFFFFFFFFFFFF DUP3 AND SWAP1 POP SWAP2 SWAP1 POP JUMP JUMPDEST PUSH1 0x0 PUSH2 0xA2D DUP3 PUSH2 0xA02 JUMP JUMPDEST SWAP1 POP SWAP2 SWAP1 POP JUMP JUMPDEST PUSH2 0xA3D DUP2 PUSH2 0xA22 JUMP JUMPDEST DUP3 MSTORE POP POP JUMP JUMPDEST PUSH1 0x0 PUSH1 0x20 DUP3 ADD SWAP1 POP PUSH2 0xA58 PUSH1 0x0 DUP4 ADD DUP5 PUSH2 0xA34 JUMP JUMPDEST SWAP3 SWAP2 POP POP JUMP JUMPDEST PUSH1 0x0 DUP2 SWAP1 POP SWAP2 SWAP1 POP JUMP JUMPDEST PUSH2 0xA71 DUP2 PUSH2 0xA5E JUMP JUMPDEST DUP3 MSTORE POP POP JUMP JUMPDEST PUSH1 0x0 PUSH1 0x20 DUP3 ADD SWAP1 POP PUSH2 0xA8C PUSH1 0x0 DUP4 ADD DUP5 PUSH2 0xA68 JUMP JUMPDEST SWAP3 SWAP2 POP POP JUMP JUMPDEST PUSH32 0x4E487B7100000000000000000000000000000000000000000000000000000000 PUSH1 0x0 MSTORE PUSH1 0x22 PUSH1 0x4 MSTORE PUSH1 0x24 PUSH1 0x0 REVERT JUMPDEST PUSH1 0x0 PUSH1 0x2 DUP3 DIV SWAP1 POP PUSH1 0x1 DUP3 AND DUP1 PUSH2 0xAD9 JUMPI PUSH1 0x7F DUP3 AND SWAP2 POP JUMPDEST PUSH1 0x20 DUP3 LT DUP2 SUB PUSH2 0xAEC JUMPI PUSH2 0xAEB PUSH2 0xA92 JUMP JUMPDEST JUMPDEST POP SWAP2 SWAP1 POP JUMP JUMPDEST PUSH1 0x0 DUP2 SWAP1 POP SWAP3 SWAP2 POP POP JUMP JUMPDEST PUSH1 0x0 PUSH2 0xB08 DUP3 PUSH2 0x5B1 JUMP JUMPDEST PUSH2 0xB12 DUP2 DUP6 PUSH2 0xAF2 JUMP JUMPDEST SWAP4 POP PUSH2 0xB22 DUP2 DUP6 PUSH1 0x20 DUP7 ADD PUSH2 0x5CD JUMP JUMPDEST DUP1 DUP5 ADD SWAP2 POP POP SWAP3 SWAP2 POP POP JUMP JUMPDEST PUSH1 0x0 PUSH2 0xB3A DUP3 DUP5 PUSH2 0xAFD JUMP JUMPDEST SWAP2 POP DUP2 SWAP1 POP SWAP3 SWAP2 POP POP JUMP JUMPDEST PUSH32 0x57726F6E672061646D696E697374726174696F6E210000000000000000000000 PUSH1 0x0 DUP3 ADD MSTORE POP JUMP JUMPDEST PUSH1 0x0 PUSH2 0xB7B PUSH1 0x15 DUP4 PUSH2 0x5BC JUMP JUMPDEST SWAP2 POP PUSH2 0xB86 DUP3 PUSH2 0xB45 JUMP JUMPDEST PUSH1 0x20 DUP3 ADD SWAP1 POP SWAP2 SWAP1 POP JUMP JUMPDEST PUSH1 0x0 PUSH1 0x20 DUP3 ADD SWAP1 POP DUP2 DUP2 SUB PUSH1 0x0 DUP4 ADD MSTORE PUSH2 0xBAA DUP2 PUSH2 0xB6E JUMP JUMPDEST SWAP1 POP SWAP2 SWAP1 POP JUMP JUMPDEST PUSH32 0x4E487B7100000000000000000000000000000000000000000000000000000000 PUSH1 0x0 MSTORE PUSH1 0x32 PUSH1 0x4 MSTORE PUSH1 0x24 PUSH1 0x0 REVERT JUMPDEST PUSH32 0x4E487B7100000000000000000000000000000000000000000000000000000000 PUSH1 0x0 MSTORE PUSH1 0x11 PUSH1 0x4 MSTORE PUSH1 0x24 PUSH1 0x0 REVERT JUMPDEST PUSH1 0x0 PUSH2 0xC1A DUP3 PUSH2 0x510 JUMP JUMPDEST SWAP2 POP PUSH32 0xFFFFFFFFFFFFFFFFFFFFFFFFFFFFFFFFFFFFFFFFFFFFFFFFFFFFFFFFFFFFFFFF DUP3 SUB PUSH2 0xC4C JUMPI PUSH2 0xC4B PUSH2 0xBE0 JUMP JUMPDEST JUMPDEST PUSH1 0x1 DUP3 ADD SWAP1 POP SWAP2 SWAP1 POP JUMP JUMPDEST PUSH1 0x0 DUP3 DUP3 MSTORE PUSH1 0x20 DUP3 ADD SWAP1 POP SWAP3 SWAP2 POP POP JUMP JUMPDEST PUSH1 0x0 PUSH2 0xC73 DUP3 PUSH2 0x5B1 JUMP JUMPDEST PUSH2 0xC7D DUP2 DUP6 PUSH2 0xC57 JUMP JUMPDEST SWAP4 POP PUSH2 0xC8D DUP2 DUP6 PUSH1 0x20 DUP7 ADD PUSH2 0x5CD JUMP JUMPDEST PUSH2 0xC96 DUP2 PUSH2 0x5F7 JUMP JUMPDEST DUP5 ADD SWAP2 POP POP SWAP3 SWAP2 POP POP JUMP JUMPDEST PUSH1 0x0 PUSH1 0x20 DUP3 ADD SWAP1 POP DUP2 DUP2 SUB PUSH1 0x0 DUP4 ADD MSTORE PUSH2 0xCBB DUP2 DUP5 PUSH2 0xC68 JUMP JUMPDEST SWAP1 POP SWAP3 SWAP2 POP POP JUMP JUMPDEST PUSH2 0xCCC DUP2 PUSH2 0xA5E JUMP JUMPDEST DUP2 EQ PUSH2 0xCD7 JUMPI PUSH1 0x0 DUP1 REVERT JUMPDEST POP JUMP JUMPDEST PUSH1 0x0 DUP2 MLOAD SWAP1 POP PUSH2 0xCE9 DUP2 PUSH2 0xCC3 JUMP JUMPDEST SWAP3 SWAP2 POP POP JUMP JUMPDEST PUSH1 0x0 PUSH1 0x20 DUP3 DUP5 SUB SLT ISZERO PUSH2 0xD05 JUMPI PUSH2 0xD04 PUSH2 0x54E JUMP JUMPDEST JUMPDEST PUSH1 0x0 PUSH2 0xD13 DUP5 DUP3 DUP6 ADD PUSH2 0xCDA JUMP JUMPDEST SWAP2 POP POP SWAP3 SWAP2 POP POP JUMP INVALID LOG2 PUSH5 0x6970667358 0x22 SLT KECCAK256 EQ 0x4B 0xBB STATICCALL SDIV 0xAA PUSH23 0x47AD090CF22158275BCDA7AE101499702232009A51932B 0xC 0xA7 PUSH5 0x736F6C6343 STOP ADDMOD SLT STOP CALLER "
		},
		"gasEstimates": {
			"creation": {
				"codeDepositCost": "682000",
				"executionCost": "infinite",
				"totalCost": "infinite"
			},
			"external": {
				"": "179",
				"addBill(string[],uint256[])": "infinite",
				"administrator()": "2558",
				"encode_string(string)": "infinite",
				"getBill(string)": "infinite",
				"queryCash(string)": "infinite",
				"queryOwner(uint256)": "infinite",
				"total_cash()": "2430"
			}
		},
		"methodIdentifiers": {
			"addBill(string[],uint256[])": "cab83818",
			"administrator()": "f53d0a8e",
			"encode_string(string)": "ffa60b3b",
			"getBill(string)": "71641500",
			"queryCash(string)": "66e60208",
			"queryOwner(uint256)": "42e14fc6",
			"total_cash()": "05d0deba"
		}
	},
	"abi": [
		{
			"inputs": [
				{
					"internalType": "address",
					"name": "_administrator",
					"type": "address"
				},
				{
					"internalType": "uint256",
					"name": "_total_cash",
					"type": "uint256"
				}
			],
			"stateMutability": "nonpayable",
			"type": "constructor"
		},
		{
			"anonymous": false,
			"inputs": [
				{
					"indexed": false,
					"internalType": "string",
					"name": "owner",
					"type": "string"
				},
				{
					"indexed": false,
					"internalType": "uint256",
					"name": "cash",
					"type": "uint256"
				}
			],
			"name": "createBill",
			"type": "event"
		},
		{
			"stateMutability": "nonpayable",
			"type": "fallback"
		},
		{
			"inputs": [
				{
					"internalType": "string[]",
					"name": "_owner",
					"type": "string[]"
				},
				{
					"internalType": "uint256[]",
					"name": "_cash",
					"type": "uint256[]"
				}
			],
			"name": "addBill",
			"outputs": [],
			"stateMutability": "nonpayable",
			"type": "function"
		},
		{
			"inputs": [],
			"name": "administrator",
			"outputs": [
				{
					"internalType": "address",
					"name": "",
					"type": "address"
				}
			],
			"stateMutability": "view",
			"type": "function"
		},
		{
			"inputs": [
				{
					"internalType": "string",
					"name": "input",
					"type": "string"
				}
			],
			"name": "encode_string",
			"outputs": [
				{
					"internalType": "bytes32",
					"name": "",
					"type": "bytes32"
				}
			],
			"stateMutability": "pure",
			"type": "function"
		},
		{
			"inputs": [
				{
					"internalType": "string",
					"name": "_owner",
					"type": "string"
				}
			],
			"name": "getBill",
			"outputs": [
				{
					"internalType": "uint256",
					"name": "",
					"type": "uint256"
				}
			],
			"stateMutability": "view",
			"type": "function"
		},
		{
			"inputs": [
				{
					"internalType": "string",
					"name": "",
					"type": "string"
				}
			],
			"name": "queryCash",
			"outputs": [
				{
					"internalType": "uint256",
					"name": "",
					"type": "uint256"
				}
			],
			"stateMutability": "view",
			"type": "function"
		},
		{
			"inputs": [
				{
					"internalType": "uint256",
					"name": "",
					"type": "uint256"
				}
			],
			"name": "queryOwner",
			"outputs": [
				{
					"internalType": "string",
					"name": "",
					"type": "string"
				}
			],
			"stateMutability": "view",
			"type": "function"
		},
		{
			"inputs": [],
			"name": "total_cash",
			"outputs": [
				{
					"internalType": "uint256",
					"name": "",
					"type": "uint256"
				}
			],
			"stateMutability": "view",
			"type": "function"
		},
		{
			"stateMutability": "payable",
			"type": "receive"
		}
	]
}